:020000040800F2
:10000000980600200101000871020008690200083A
:100010006D020008490100089F0800080000000068
:1000200000000000000000000000000011040008B3
:100030004D01000800000000F90200082505000835
:100040001B0100081B0100081B0100081B01000820
:100050001B0100081B0100081B0100081B01000810
:100060001B0100081B0100081B0100081B01000800
:100070001B0100081B0100081B0100081B010008F0
:100080001B0100081B0100081B0100081B010008E0
:100090001B0100081B0100081B0100081B010008D0
:1000A0001B0100081B0100081B0100081B010008C0
:1000B0001B0100081B0100081B0100081B010008B0
:1000C0001B0100081B0100081B0100081B010008A0
:1000D0001B010008890500082D0600088506000898
:1000E0001B0100081B0100081B010008DFF80CD0F1
:1000F00000F018F800480047550A0008980600204C
:100100000648804706480047FEE7FEE7FEE7FEE7B1
:10011000FEE7FEE7FEE7FEE7FEE7FEE7290500084B
:10012000ED000008064C074D06E0E06840F00103D2
:1001300094E8070098471034AC42F6D3FFF7DAFF93
:100140000C0D00082C0D000800BFFEE770472DE9DC
:10015000F04102460025002600200023002400274D
:1001600091F803C00CF00F0591F803C00CF0100CCF
:10017000BCF1000F03D091F802C04CEA050591F8DC
:1001800000C0BCF1000F31D0146800202BE04FF00C
:10019000010C0CFA00F3B1F800C00CEA03069E4211
:1001A00020D183004FF00F0C0CFA03F7BC4305FA83
:1001B00003FC4CEA040491F803C0BCF1280F06D1FB
:1001C0004FF0010C0CFA00FCC2F814C00AE091F8E0
:1001D00003C0BCF1480F05D14FF0010C0CFA00FC34
:1001E000C2F810C0401C0828D1D31460B1F800C078
:1001F000BCF1FF0F34DD546800202EE000F1080C44
:100200004FF0010808FA0CF3B1F800C00CEA03063D
:100210009E4221D183004FF00F0C0CFA03F7BC4330
:1002200005FA03FC4CEA040491F803C0BCF1280F62
:1002300005D100F1080C08FA0CF8C2F8148091F806
:1002400003C0BCF1480F07D100F1080C4FF00108C2
:1002500008FA0CF8C2F81080401C0828CED354606D
:10026000BDE8F0810161704700BFFEE700BFFEE717
:100270007047000070B5002100230F22C47804B33A
:10028000154C246804F4E064C4F5E064210AC1F16B
:100290000403CA40447804FA03F1847814402143EB
:1002A00009010E4C0678A155047804F01F050124BD
:1002B000AC4005786D11AD0005F1E025C5F80041B1
:1002C00009E0047804F01F050124AC40044D0678D1
:1002D000761145F8264070BD0CED00E000E400E02A
:1002E00080E100E002490143024A116070470000CA
:1002F0000000FA050CED00E07047000029B1064A45
:10030000D2690243044BDA6104E0034AD2698243B2
:10031000014BDA61704700000010024029B1064A23
:1003200092690243044B9A6104E0034A9269824352
:10033000014B9A61704700000010024030B5002167
:100340000022002400232D4D6D6805F00C0121B121
:10035000042905D0082923D105E0294D056022E0B4
:10036000274D05601FE0254D6D6805F47012234D83
:100370006D6805F48034022505EB92421CB9214DCD
:10038000554305600BE01D4D6D6805F400351DB14A
:100390001C4D5543056002E0194D5543056002E0D0
:1003A000174D056000BF00BF144D6D6805F0F001EA
:1003B0000909154D6B5C0568DD4045600F4D6D68A2
:1003C00005F4E061090A104D6B5C4568DD4085600D
:1003D0000A4D6D6805F46051C90A0B4D6B5C4568A8
:1003E000DD40C560054D6D6805F44041890B074D42
:1003F0006B5CC568B5FBF3F5056130BD00100240CC
:1004000000127A0000093D002C0000203C00002072
:10041000704710B500F002F810BD00000CB50020C8
:10042000019000903348006840F480303149086002
:1004300000BF3048006800F4003000900198401C74
:100440000190009818B90198B0F5A06FF1D1294832
:10045000006800F4003010B10120009001E000209D
:1004600000900098012843D12348006840F0100014
:10047000214908600846006820F00300086008462B
:10048000006840F0020008601A4840681949486056
:100490000846406848600846406840F4806048600C
:1004A0000846406820F47C1048600846406840F4E4
:1004B000E81048600846006840F08070086000BF9F
:1004C0000C48006800F000700028F9D00948406826
:1004D00020F00300074948600846406840F00200E9
:1004E000486000BF0348406800F00C000828F9D1BC
:1004F0000CBD00000010024000200240042808D17A
:100500004FF0E021096941F004014FF0E022116150
:1005100007E04FF0E021096921F004014FF0E022EB
:10052000116170477047000010B51348006840F033
:1005300001001149086008464068104908400E490A
:100540004860084600680E4908400B4908600846A4
:10055000006820F4802008600846406820F4FE000F
:1005600048604FF41F008860FFF753FF4FF00060B2
:100570000449086010BD0000001002400000FFF8B0
:10058000FFFFF6FE08ED00E010B540F225512248CD
:1005900000F0C0F800283DD01F4800F077F9C4B241
:1005A0001E48008800F40040A0BB1C48008800F4EE
:1005B000804078B10A2C03D000201849088029E037
:1005C0001648008840F4004014490880012014496E
:1005D00008701FE00D2C06D11048008840F48040C0
:1005E0000E49088016E00D480088C0F30D000D4943
:1005F0000C540A480088C0F30D000B4908800748D6
:100600000088401C0549088008460088C72801DD8D
:100610000020088010BD00000038014020000020AC
:1006200026000020400000202400002010B540F2E9
:100630002551104800F06EF8B0B10E4800F026F9D0
:10064000C4B20D480D490988445421460CA000F05D
:1006500029F90A480088401C084908800846008893
:10066000C72801DD0020088040F22551014800F034
:100670002FF810BD00440040080100202800002091
:100680002563000010B540F225510E4800F042F8F5
:1006900090B10C4800F0FAF8C4B20B480B49098835
:1006A00044540A480088401C0849088008460088CD
:1006B000C72801DD0020088040F22551014800F0E4
:1006C00007F810BD00480040D00100202A0000209B
:1006D00001F40072B2F5007F00D100BFCA4302806E
:1006E000704721B1828942F40052828104E08289FC
:1006F0004DF6FF731A408281704702460020B1F523
:10070000007F00D100BF13880B400BB1012000E037
:100710000020704770B50246002400230025002009
:1007200040F66A16B14200D100BFC1F3421501F094
:100730001F03012606FA03F3012D02D196893340E7
:1007400006E0022D02D1168A334001E0968A33403A
:100750000C12012606FA04F41688344013B10CB1C9
:10076000012000E0002070BDF0B503460024002603
:100770000025002040F66A17B94200D100BF184694
:10078000C1F3421401F01F06012707FA06F5012CF8
:1007900001D10C3004E0022C01D1103000E0143003
:1007A0001AB107682F43076002E00768AF4307608C
:1007B000F0BD00002DE9F04786B005460E46002446
:1007C000A24600BFA1460027B08900B100BF2F4656
:1007D0002C8A4CF6FF700440F08804432C82AC89CC
:1007E0004EF6F3100440B0883189084371890843FC
:1007F0000443AC81AC8A4FF6FF400440B089044307
:10080000AC8201A8FFF79AFD1F48874202D1DDF8AC
:1008100010A001E0DDF80CA0A88900F4004040B170
:100820000AEBCA0000EB0A1031684900B0FBF1F88E
:1008300007E00AEBCA0000EB0A1031688900B0FB40
:10084000F1F86420B8FBF0F004012009642101FBF9
:100850001089A88900F4004040B1322000EBC900A3
:10086000B0FBF1F000F00700044308E0322000EB99
:1008700009106421B0FBF1F000F00F0004432C815B
:1008800006B0BDE8F08700000038014001468888C6
:10089000C0F308007047C1F308028280704700BFB0
:1008A000FEE700000FB4054B10B503A9044A0298F7
:1008B00000F017F810BC5DF814FB0000FD090008FB
:1008C0001800002002E008C8121F08C1002AFAD14F
:1008D00070477047002001E001C1121F002AFBD1C0
:1008E00070472DE9F84F99469246884605460027FD
:1008F00006E025280AD051464A4690476D1C7F1CC9
:1009000028780028F5D13846BDE8F88F002315F87F
:10091000011F18462E2915D115F8011F04232A2975
:100920000DD06FF02F022978A1F13004092C09D8DD
:1009300000EB800002EB400008446D1CF3E758F820
:10094000040B6D1C2A78002ADDD0632A07D0732A95
:100950000FD0104651464A4690477F1C2AE018F8AF
:10096000042B8DF8002000218DF801106E46012126
:1009700003E058F8046B4FF0FF315A074FF00004C2
:1009800001D409E0641C84420BDA8C42FADB325D4C
:10099000002AF7D105E0641C8C42FCDB305D0028A6
:1009A000F9D1274404E016F8010B51464A46904716
:1009B000641EF8D26D1CA3E710B56FF00400FFF7BA
:1009C0009DFD0A4800680A49B0FBF1F0094908702A
:1009D0000846007800EB4001C1EBC0104FF6FF71F4
:1009E00001EAC0000449088010BD0000000000209A
:1009F00000127A001400002016000020024612485F
:100A0000006801280CD100BF1048008800F04000A9
:100A10000028F9D0D0B20D4B1B1D1880104670472E
:100A20000948006802280CD100BF0948008800F07E
:100A300040000028F9D0D0B2054B1B1D188010468D
:100A4000EDE700BFEBE700001C000020003801408C
:100A50000044004000BF4FF4A060FFF743FC4FF498
:100A6000165000F033F84FF4165000F091F84FF4A0
:100A7000165000F0F7F8FFF79FFF15E00B480078DD
:100A800088B100200949087009490AA0FFF70AFF48
:100A90000B480088401C82B205490A4800F0C8F89B
:100AA00000200949088000BFE8E700002600002078
:100AB0004000002073656E643A25730D0A00000043
:100AC00024000020004400402000002010B586B023
:100AD000044601210420FFF721FC01214804FFF70F
:100AE0000DFC0420ADF8140003208DF8160018202A
:100AF0008DF8170005A92448FFF729FB0820ADF859
:100B0000140004208DF8170005A91F48FFF71FFBEC
:100B10001020ADF814008DF8170003208DF8160092
:100B200005A91948FFF713FB10211748FFF79AFB97
:100B300026208DF8000002208DF801008DF80200BB
:100B400001208DF803006846FFF794FB0194002014
:100B5000ADF80800ADF80A00ADF80C00ADF81000D3
:100B60000C20ADF80E0001A90848FFF723FE012272
:100B700040F225510548FFF7F7FD01210348FFF733
:100B8000B0FD06B010BD0000000801400044004068
:100B900010B586B00446012144F20400FFF7BEFB05
:100BA0004FF40070ADF8140003208DF816001820E3
:100BB0008DF8170005A91C48FFF7C9FA4FF48060AB
:100BC000ADF8140004208DF8170005A91648FFF7AA
:100BD000BEFA25208DF8000003208DF801008DF865
:100BE000020001208DF803006846FFF743FB0194E3
:100BF0000020ADF80800ADF80A00ADF80C00ADF823
:100C000010000C20ADF80E0001A90848FFF7D2FD36
:100C1000012240F225510548FFF7A6FD01210348B6
:100C2000FFF75FFD06B010BD00080140003801402D
:100C30002DE9F04107460D46164600240CE0295DDB
:100C40003846FFF728FE00BF80213846FFF755FDE4
:100C50000028F9D0601C84B2B442F0DB2046BDE825
:100C6000F081000010B586B0044601210820FFF78E
:100C700055FB01218804FFF741FB4FF48060ADF87C
:100C8000140003208DF8160018208DF8170005A910
:100C90001C48FFF75CFA4FF40060ADF81400042024
:100CA0008DF8170005A91748FFF751FA27208DF88E
:100CB000000002208DF801008DF8020001208DF85F
:100CC00003006846FFF7D6FA01940020ADF808004B
:100CD000ADF80A00ADF80C00ADF810000C20ADF82E
:100CE0000E0001A90848FFF765FD012240F22551D9
:100CF0000548FFF739FD01210348FFF7F2FC06B074
:100D000010BD0000000C0140004800402C0D000800
:100D10000000002040000000C40800086C0D00081E
:100D20004000002058060000D408000800A24A0431
:100D3000000000000000000001020304060708098B
:100D400000000000000000000100000000000000A2
:100D50000000000000000000000000000102030489
:0C0D60000102030406070809020406084B
:04000005080000ED02
:00000001FF
